{
  "contractName": "HoneyFarm",
  "abi": [
    {
      "inputs": [
        {
          "internalType": "contract IERC20",
          "name": "hsf_",
          "type": "address"
        },
        {
          "internalType": "uint256",
          "name": "totalHsfToDist",
          "type": "uint256"
        },
        {
          "internalType": "uint256",
          "name": "startTime_",
          "type": "uint256"
        },
        {
          "internalType": "uint256",
          "name": "endTime_",
          "type": "uint256"
        },
        {
          "internalType": "uint256",
          "name": "endDistFrac",
          "type": "uint256"
        },
        {
          "internalType": "uint256",
          "name": "maxTimeLock_",
          "type": "uint256"
        },
        {
          "internalType": "uint256",
          "name": "timeLockMultiplier_",
          "type": "uint256"
        },
        {
          "internalType": "uint256",
          "name": "timeLockConstant_",
          "type": "uint256"
        }
      ],
      "stateMutability": "nonpayable",
      "type": "constructor"
    },
    {
      "anonymous": false,
      "inputs": [
        {
          "indexed": true,
          "internalType": "address",
          "name": "owner",
          "type": "address"
        },
        {
          "indexed": true,
          "internalType": "address",
          "name": "approved",
          "type": "address"
        },
        {
          "indexed": true,
          "internalType": "uint256",
          "name": "tokenId",
          "type": "uint256"
        }
      ],
      "name": "Approval",
      "type": "event"
    },
    {
      "anonymous": false,
      "inputs": [
        {
          "indexed": true,
          "internalType": "address",
          "name": "owner",
          "type": "address"
        },
        {
          "indexed": true,
          "internalType": "address",
          "name": "operator",
          "type": "address"
        },
        {
          "indexed": false,
          "internalType": "bool",
          "name": "approved",
          "type": "bool"
        }
      ],
      "name": "ApprovalForAll",
      "type": "event"
    },
    {
      "anonymous": false,
      "inputs": [
        {
          "indexed": false,
          "internalType": "uint256",
          "name": "depositId",
          "type": "uint256"
        }
      ],
      "name": "DepositDowngraded",
      "type": "event"
    },
    {
      "anonymous": false,
      "inputs": [],
      "name": "Disabled",
      "type": "event"
    },
    {
      "anonymous": false,
      "inputs": [
        {
          "indexed": true,
          "internalType": "address",
          "name": "previousOwner",
          "type": "address"
        },
        {
          "indexed": true,
          "internalType": "address",
          "name": "newOwner",
          "type": "address"
        }
      ],
      "name": "OwnershipTransferred",
      "type": "event"
    },
    {
      "anonymous": false,
      "inputs": [
        {
          "indexed": true,
          "internalType": "contract IERC20",
          "name": "poolToken",
          "type": "address"
        },
        {
          "indexed": false,
          "internalType": "uint256",
          "name": "allocPoint",
          "type": "uint256"
        }
      ],
      "name": "PoolAdded",
      "type": "event"
    },
    {
      "anonymous": false,
      "inputs": [
        {
          "indexed": true,
          "internalType": "contract IERC20",
          "name": "poolToken",
          "type": "address"
        },
        {
          "indexed": false,
          "internalType": "uint256",
          "name": "allocPoint",
          "type": "uint256"
        }
      ],
      "name": "PoolUpdated",
      "type": "event"
    },
    {
      "anonymous": false,
      "inputs": [
        {
          "indexed": true,
          "internalType": "address",
          "name": "referrer",
          "type": "address"
        },
        {
          "indexed": false,
          "internalType": "uint256",
          "name": "depositId",
          "type": "uint256"
        }
      ],
      "name": "Referred",
      "type": "event"
    },
    {
      "anonymous": false,
      "inputs": [
        {
          "indexed": true,
          "internalType": "address",
          "name": "from",
          "type": "address"
        },
        {
          "indexed": true,
          "internalType": "address",
          "name": "to",
          "type": "address"
        },
        {
          "indexed": true,
          "internalType": "uint256",
          "name": "tokenId",
          "type": "uint256"
        }
      ],
      "name": "Transfer",
      "type": "event"
    },
    {
      "inputs": [],
      "name": "SCALE",
      "outputs": [
        {
          "internalType": "uint256",
          "name": "",
          "type": "uint256"
        }
      ],
      "stateMutability": "view",
      "type": "function",
      "constant": true
    },
    {
      "inputs": [
        {
          "internalType": "address",
          "name": "to",
          "type": "address"
        },
        {
          "internalType": "uint256",
          "name": "tokenId",
          "type": "uint256"
        }
      ],
      "name": "approve",
      "outputs": [],
      "stateMutability": "nonpayable",
      "type": "function"
    },
    {
      "inputs": [
        {
          "internalType": "address",
          "name": "owner",
          "type": "address"
        }
      ],
      "name": "balanceOf",
      "outputs": [
        {
          "internalType": "uint256",
          "name": "",
          "type": "uint256"
        }
      ],
      "stateMutability": "view",
      "type": "function",
      "constant": true
    },
    {
      "inputs": [],
      "name": "baseURI",
      "outputs": [
        {
          "internalType": "string",
          "name": "",
          "type": "string"
        }
      ],
      "stateMutability": "view",
      "type": "function",
      "constant": true
    },
    {
      "inputs": [],
      "name": "contractDisabled",
      "outputs": [
        {
          "internalType": "bool",
          "name": "",
          "type": "bool"
        }
      ],
      "stateMutability": "view",
      "type": "function",
      "constant": true
    },
    {
      "inputs": [
        {
          "internalType": "uint256",
          "name": "",
          "type": "uint256"
        }
      ],
      "name": "depositInfo",
      "outputs": [
        {
          "internalType": "uint256",
          "name": "amount",
          "type": "uint256"
        },
        {
          "internalType": "uint256",
          "name": "rewardDebt",
          "type": "uint256"
        },
        {
          "internalType": "uint256",
          "name": "unlockTime",
          "type": "uint256"
        },
        {
          "internalType": "uint256",
          "name": "rewardShare",
          "type": "uint256"
        },
        {
          "internalType": "uint256",
          "name": "setRewards",
          "type": "uint256"
        },
        {
          "internalType": "contract IERC20",
          "name": "pool",
          "type": "address"
        },
        {
          "internalType": "address",
          "name": "referrer",
          "type": "address"
        }
      ],
      "stateMutability": "view",
      "type": "function",
      "constant": true
    },
    {
      "inputs": [],
      "name": "distSlope",
      "outputs": [
        {
          "internalType": "uint256",
          "name": "",
          "type": "uint256"
        }
      ],
      "stateMutability": "view",
      "type": "function",
      "constant": true
    },
    {
      "inputs": [],
      "name": "endTime",
      "outputs": [
        {
          "internalType": "uint256",
          "name": "",
          "type": "uint256"
        }
      ],
      "stateMutability": "view",
      "type": "function",
      "constant": true
    },
    {
      "inputs": [
        {
          "internalType": "uint256",
          "name": "tokenId",
          "type": "uint256"
        }
      ],
      "name": "getApproved",
      "outputs": [
        {
          "internalType": "address",
          "name": "",
          "type": "address"
        }
      ],
      "stateMutability": "view",
      "type": "function",
      "constant": true
    },
    {
      "inputs": [],
      "name": "hsf",
      "outputs": [
        {
          "internalType": "contract IERC20",
          "name": "",
          "type": "address"
        }
      ],
      "stateMutability": "view",
      "type": "function",
      "constant": true
    },
    {
      "inputs": [
        {
          "internalType": "address",
          "name": "owner",
          "type": "address"
        },
        {
          "internalType": "address",
          "name": "operator",
          "type": "address"
        }
      ],
      "name": "isApprovedForAll",
      "outputs": [
        {
          "internalType": "bool",
          "name": "",
          "type": "bool"
        }
      ],
      "stateMutability": "view",
      "type": "function",
      "constant": true
    },
    {
      "inputs": [],
      "name": "maxTimeLock",
      "outputs": [
        {
          "internalType": "uint256",
          "name": "",
          "type": "uint256"
        }
      ],
      "stateMutability": "view",
      "type": "function",
      "constant": true
    },
    {
      "inputs": [],
      "name": "name",
      "outputs": [
        {
          "internalType": "string",
          "name": "",
          "type": "string"
        }
      ],
      "stateMutability": "view",
      "type": "function",
      "constant": true
    },
    {
      "inputs": [],
      "name": "owner",
      "outputs": [
        {
          "internalType": "address",
          "name": "",
          "type": "address"
        }
      ],
      "stateMutability": "view",
      "type": "function",
      "constant": true
    },
    {
      "inputs": [
        {
          "internalType": "uint256",
          "name": "tokenId",
          "type": "uint256"
        }
      ],
      "name": "ownerOf",
      "outputs": [
        {
          "internalType": "address",
          "name": "",
          "type": "address"
        }
      ],
      "stateMutability": "view",
      "type": "function",
      "constant": true
    },
    {
      "inputs": [
        {
          "internalType": "contract IERC20",
          "name": "",
          "type": "address"
        }
      ],
      "name": "poolInfo",
      "outputs": [
        {
          "internalType": "uint256",
          "name": "allocPoint",
          "type": "uint256"
        },
        {
          "internalType": "uint256",
          "name": "lastRewardTimestamp",
          "type": "uint256"
        },
        {
          "internalType": "uint256",
          "name": "accHsfPerShare",
          "type": "uint256"
        },
        {
          "internalType": "uint256",
          "name": "totalShares",
          "type": "uint256"
        }
      ],
      "stateMutability": "view",
      "type": "function",
      "constant": true
    },
    {
      "inputs": [],
      "name": "referralPoints",
      "outputs": [
        {
          "internalType": "contract ReferralPoints",
          "name": "",
          "type": "address"
        }
      ],
      "stateMutability": "view",
      "type": "function",
      "constant": true
    },
    {
      "inputs": [],
      "name": "renounceOwnership",
      "outputs": [],
      "stateMutability": "nonpayable",
      "type": "function"
    },
    {
      "inputs": [
        {
          "internalType": "address",
          "name": "from",
          "type": "address"
        },
        {
          "internalType": "address",
          "name": "to",
          "type": "address"
        },
        {
          "internalType": "uint256",
          "name": "tokenId",
          "type": "uint256"
        }
      ],
      "name": "safeTransferFrom",
      "outputs": [],
      "stateMutability": "nonpayable",
      "type": "function"
    },
    {
      "inputs": [
        {
          "internalType": "address",
          "name": "from",
          "type": "address"
        },
        {
          "internalType": "address",
          "name": "to",
          "type": "address"
        },
        {
          "internalType": "uint256",
          "name": "tokenId",
          "type": "uint256"
        },
        {
          "internalType": "bytes",
          "name": "_data",
          "type": "bytes"
        }
      ],
      "name": "safeTransferFrom",
      "outputs": [],
      "stateMutability": "nonpayable",
      "type": "function"
    },
    {
      "inputs": [
        {
          "internalType": "address",
          "name": "operator",
          "type": "address"
        },
        {
          "internalType": "bool",
          "name": "approved",
          "type": "bool"
        }
      ],
      "name": "setApprovalForAll",
      "outputs": [],
      "stateMutability": "nonpayable",
      "type": "function"
    },
    {
      "inputs": [],
      "name": "startDist",
      "outputs": [
        {
          "internalType": "uint256",
          "name": "",
          "type": "uint256"
        }
      ],
      "stateMutability": "view",
      "type": "function",
      "constant": true
    },
    {
      "inputs": [],
      "name": "startTime",
      "outputs": [
        {
          "internalType": "uint256",
          "name": "",
          "type": "uint256"
        }
      ],
      "stateMutability": "view",
      "type": "function",
      "constant": true
    },
    {
      "inputs": [
        {
          "internalType": "bytes4",
          "name": "interfaceId",
          "type": "bytes4"
        }
      ],
      "name": "supportsInterface",
      "outputs": [
        {
          "internalType": "bool",
          "name": "",
          "type": "bool"
        }
      ],
      "stateMutability": "view",
      "type": "function",
      "constant": true
    },
    {
      "inputs": [],
      "name": "symbol",
      "outputs": [
        {
          "internalType": "string",
          "name": "",
          "type": "string"
        }
      ],
      "stateMutability": "view",
      "type": "function",
      "constant": true
    },
    {
      "inputs": [],
      "name": "timeLockConstant",
      "outputs": [
        {
          "internalType": "uint256",
          "name": "",
          "type": "uint256"
        }
      ],
      "stateMutability": "view",
      "type": "function",
      "constant": true
    },
    {
      "inputs": [],
      "name": "timeLockMultiplier",
      "outputs": [
        {
          "internalType": "uint256",
          "name": "",
          "type": "uint256"
        }
      ],
      "stateMutability": "view",
      "type": "function",
      "constant": true
    },
    {
      "inputs": [
        {
          "internalType": "uint256",
          "name": "index",
          "type": "uint256"
        }
      ],
      "name": "tokenByIndex",
      "outputs": [
        {
          "internalType": "uint256",
          "name": "",
          "type": "uint256"
        }
      ],
      "stateMutability": "view",
      "type": "function",
      "constant": true
    },
    {
      "inputs": [
        {
          "internalType": "address",
          "name": "owner",
          "type": "address"
        },
        {
          "internalType": "uint256",
          "name": "index",
          "type": "uint256"
        }
      ],
      "name": "tokenOfOwnerByIndex",
      "outputs": [
        {
          "internalType": "uint256",
          "name": "",
          "type": "uint256"
        }
      ],
      "stateMutability": "view",
      "type": "function",
      "constant": true
    },
    {
      "inputs": [
        {
          "internalType": "uint256",
          "name": "tokenId",
          "type": "uint256"
        }
      ],
      "name": "tokenURI",
      "outputs": [
        {
          "internalType": "string",
          "name": "",
          "type": "string"
        }
      ],
      "stateMutability": "view",
      "type": "function",
      "constant": true
    },
    {
      "inputs": [],
      "name": "totalAllocPoint",
      "outputs": [
        {
          "internalType": "uint256",
          "name": "",
          "type": "uint256"
        }
      ],
      "stateMutability": "view",
      "type": "function",
      "constant": true
    },
    {
      "inputs": [],
      "name": "totalDeposits",
      "outputs": [
        {
          "internalType": "uint256",
          "name": "",
          "type": "uint256"
        }
      ],
      "stateMutability": "view",
      "type": "function",
      "constant": true
    },
    {
      "inputs": [],
      "name": "totalSupply",
      "outputs": [
        {
          "internalType": "uint256",
          "name": "",
          "type": "uint256"
        }
      ],
      "stateMutability": "view",
      "type": "function",
      "constant": true
    },
    {
      "inputs": [
        {
          "internalType": "address",
          "name": "from",
          "type": "address"
        },
        {
          "internalType": "address",
          "name": "to",
          "type": "address"
        },
        {
          "internalType": "uint256",
          "name": "tokenId",
          "type": "uint256"
        }
      ],
      "name": "transferFrom",
      "outputs": [],
      "stateMutability": "nonpayable",
      "type": "function"
    },
    {
      "inputs": [
        {
          "internalType": "address",
          "name": "newOwner",
          "type": "address"
        }
      ],
      "name": "transferOwnership",
      "outputs": [],
      "stateMutability": "nonpayable",
      "type": "function"
    },
    {
      "inputs": [],
      "name": "poolLength",
      "outputs": [
        {
          "internalType": "uint256",
          "name": "",
          "type": "uint256"
        }
      ],
      "stateMutability": "view",
      "type": "function",
      "constant": true
    },
    {
      "inputs": [
        {
          "internalType": "uint256",
          "name": "index",
          "type": "uint256"
        }
      ],
      "name": "getPoolByIndex",
      "outputs": [
        {
          "internalType": "contract IERC20",
          "name": "poolToken",
          "type": "address"
        },
        {
          "internalType": "uint256",
          "name": "allocPoint",
          "type": "uint256"
        },
        {
          "internalType": "uint256",
          "name": "lastRewardTimestamp",
          "type": "uint256"
        },
        {
          "internalType": "uint256",
          "name": "accHsfPerShare",
          "type": "uint256"
        },
        {
          "internalType": "uint256",
          "name": "totalShares",
          "type": "uint256"
        }
      ],
      "stateMutability": "view",
      "type": "function",
      "constant": true
    },
    {
      "inputs": [
        {
          "internalType": "address",
          "name": "tokenRecipient",
          "type": "address"
        }
      ],
      "name": "disableContract",
      "outputs": [],
      "stateMutability": "nonpayable",
      "type": "function"
    },
    {
      "inputs": [
        {
          "internalType": "uint256",
          "name": "allocPoint",
          "type": "uint256"
        },
        {
          "internalType": "contract IERC20",
          "name": "lpToken",
          "type": "address"
        },
        {
          "internalType": "bool",
          "name": "withUpdate",
          "type": "bool"
        }
      ],
      "name": "add",
      "outputs": [],
      "stateMutability": "nonpayable",
      "type": "function"
    },
    {
      "inputs": [
        {
          "internalType": "contract IERC20",
          "name": "poolToken",
          "type": "address"
        },
        {
          "internalType": "uint256",
          "name": "allocPoint",
          "type": "uint256"
        },
        {
          "internalType": "bool",
          "name": "withUpdate",
          "type": "bool"
        }
      ],
      "name": "set",
      "outputs": [],
      "stateMutability": "nonpayable",
      "type": "function"
    },
    {
      "inputs": [
        {
          "internalType": "uint256",
          "name": "from",
          "type": "uint256"
        },
        {
          "internalType": "uint256",
          "name": "to",
          "type": "uint256"
        }
      ],
      "name": "getDist",
      "outputs": [
        {
          "internalType": "uint256",
          "name": "",
          "type": "uint256"
        }
      ],
      "stateMutability": "view",
      "type": "function",
      "constant": true
    },
    {
      "inputs": [
        {
          "internalType": "uint256",
          "name": "unlockTime",
          "type": "uint256"
        }
      ],
      "name": "getTimeMultiple",
      "outputs": [
        {
          "internalType": "uint256",
          "name": "",
          "type": "uint256"
        }
      ],
      "stateMutability": "view",
      "type": "function",
      "constant": true
    },
    {
      "inputs": [
        {
          "internalType": "uint256",
          "name": "depositId",
          "type": "uint256"
        }
      ],
      "name": "pendingHsf",
      "outputs": [
        {
          "internalType": "uint256",
          "name": "",
          "type": "uint256"
        }
      ],
      "stateMutability": "view",
      "type": "function",
      "constant": true
    },
    {
      "inputs": [
        {
          "internalType": "contract IERC20",
          "name": "poolToken",
          "type": "address"
        },
        {
          "internalType": "uint256",
          "name": "amount",
          "type": "uint256"
        },
        {
          "internalType": "uint256",
          "name": "unlockTime",
          "type": "uint256"
        },
        {
          "internalType": "address",
          "name": "referrer",
          "type": "address"
        }
      ],
      "name": "createDeposit",
      "outputs": [],
      "stateMutability": "nonpayable",
      "type": "function"
    },
    {
      "inputs": [
        {
          "internalType": "uint256",
          "name": "depositId",
          "type": "uint256"
        }
      ],
      "name": "downgradeExpired",
      "outputs": [],
      "stateMutability": "nonpayable",
      "type": "function"
    },
    {
      "inputs": [
        {
          "internalType": "uint256",
          "name": "depositId",
          "type": "uint256"
        }
      ],
      "name": "closeDeposit",
      "outputs": [],
      "stateMutability": "nonpayable",
      "type": "function"
    },
    {
      "inputs": [
        {
          "internalType": "address",
          "name": "referralPoints_",
          "type": "address"
        }
      ],
      "name": "setReferralPoints",
      "outputs": [],
      "stateMutability": "nonpayable",
      "type": "function"
    },
    {
      "inputs": [],
      "name": "massUpdatePools",
      "outputs": [],
      "stateMutability": "nonpayable",
      "type": "function"
    },
    {
      "inputs": [
        {
          "internalType": "contract IERC20",
          "name": "poolToken",
          "type": "address"
        }
      ],
      "name": "updatePool",
      "outputs": [],
      "stateMutability": "nonpayable",
      "type": "function"
    }
  ],
  "bytecode": "0x6101806040523480156200001257600080fd5b5060405162006b0338038062006b0383398181016040526101008110156200003957600080fd5b8101908080519060200190929190805190602001909291908051906020019092919080519060200190929190805190602001909291908051906020019092919080519060200190929190805190602001909291905050506040518060400160405280601581526020017f486f6e65794661726d204465706f7369747320763100000000000000000000008152506040518060400160405280600381526020017f484644000000000000000000000000000000000000000000000000000000000081525060006200010e6200049860201b60201c565b9050806000806101000a81548173ffffffffffffffffffffffffffffffffffffffff021916908373ffffffffffffffffffffffffffffffffffffffff1602179055508073ffffffffffffffffffffffffffffffffffffffff16600073ffffffffffffffffffffffffffffffffffffffff167f8be0079c531659141344cd1fd0a4f28419497f9722a3daafe3b4186f6b6457e060405160405180910390a350620001c46301ffc9a760e01b620004a060201b60201c565b8160079080519060200190620001dc92919062000c53565b508060089080519060200190620001f592919062000c53565b506200020e6380ac58cd60e01b620004a060201b60201c565b62000226635b5e139f60e01b620004a060201b60201c565b6200023e63780e9d6360e01b620004a060201b60201c565b5050858511620002b6576040517f08c379a000000000000000000000000000000000000000000000000000000000815260040180806020018281038252601c8152602001807f48463a20656e6454696d65206265666f726520737461727454696d650000000081525060200191505060405180910390fd5b8773ffffffffffffffffffffffffffffffffffffffff1660808173ffffffffffffffffffffffffffffffffffffffff1660601b815250508561010081815250508461012081815250508260e081815250508161014081815250508061016081815250506200034d3330898b73ffffffffffffffffffffffffffffffffffffffff16620005a960201b62003ae217909392919060201c565b6000620004016200039062000379670de0b6b3a7640000886200067260201b62003ba31790919060201c565b898903620006fb60201b62003c2b1790919060201c565b620003ed670de0b6b3a7640000620003d9670de0b6b3a7640000620003c560028f620006fb60201b62003c2b1790919060201c565b620006fb60201b62003c2b1790919060201c565b620006fb60201b62003c2b1790919060201c565b6200078660201b62003cb11790919060201c565b90506200047a6200042b670de0b6b3a7640000898903620006fb60201b62003c2b1790919060201c565b620004666200045188670de0b6b3a76400006200081160201b62003d3a1790919060201c565b84620006fb60201b62003c2b1790919060201c565b6200078660201b62003cb11790919060201c565b60a081815250508060c0818152505050505050505050505062000d09565b600033905090565b63ffffffff60e01b817bffffffffffffffffffffffffffffffffffffffffffffffffffffffff191614156200053d576040517f08c379a000000000000000000000000000000000000000000000000000000000815260040180806020018281038252601c8152602001807f4552433136353a20696e76616c696420696e746572666163652069640000000081525060200191505060405180910390fd5b6001806000837bffffffffffffffffffffffffffffffffffffffffffffffffffffffff19167bffffffffffffffffffffffffffffffffffffffffffffffffffffffff1916815260200190815260200160002060006101000a81548160ff02191690831515021790555050565b6200066c846323b872dd60e01b858585604051602401808473ffffffffffffffffffffffffffffffffffffffff1681526020018373ffffffffffffffffffffffffffffffffffffffff1681526020018281526020019350505050604051602081830303815290604052907bffffffffffffffffffffffffffffffffffffffffffffffffffffffff19166020820180517bffffffffffffffffffffffffffffffffffffffffffffffffffffffff83818316178352505050506200089560201b60201c565b50505050565b600080828401905083811015620006f1576040517f08c379a000000000000000000000000000000000000000000000000000000000815260040180806020018281038252601b8152602001807f536166654d6174683a206164646974696f6e206f766572666c6f77000000000081525060200191505060405180910390fd5b8091505092915050565b60008083141562000710576000905062000780565b60008284029050828482816200072257fe5b04146200077b576040517f08c379a000000000000000000000000000000000000000000000000000000000815260040180806020018281038252602181526020018062006ab86021913960400191505060405180910390fd5b809150505b92915050565b6000808211620007fe576040517f08c379a000000000000000000000000000000000000000000000000000000000815260040180806020018281038252601a8152602001807f536166654d6174683a206469766973696f6e206279207a65726f00000000000081525060200191505060405180910390fd5b8183816200080857fe5b04905092915050565b6000828211156200088a576040517f08c379a000000000000000000000000000000000000000000000000000000000815260040180806020018281038252601e8152602001807f536166654d6174683a207375627472616374696f6e206f766572666c6f77000081525060200191505060405180910390fd5b818303905092915050565b6000620008fe826040518060400160405280602081526020017f5361666545524332303a206c6f772d6c6576656c2063616c6c206661696c65648152508573ffffffffffffffffffffffffffffffffffffffff166200098f60201b62003dbd179092919060201c565b90506000815111156200098a578080602001905160208110156200092157600080fd5b810190808051906020019092919050505062000989576040517f08c379a000000000000000000000000000000000000000000000000000000000815260040180806020018281038252602a81526020018062006ad9602a913960400191505060405180910390fd5b5b505050565b6060620009a68484600085620009af60201b60201c565b90509392505050565b60608247101562000a0c576040517f08c379a000000000000000000000000000000000000000000000000000000000815260040180806020018281038252602681526020018062006a926026913960400191505060405180910390fd5b62000a1d8562000b6e60201b60201c565b62000a90576040517f08c379a000000000000000000000000000000000000000000000000000000000815260040180806020018281038252601d8152602001807f416464726573733a2063616c6c20746f206e6f6e2d636f6e747261637400000081525060200191505060405180910390fd5b6000808673ffffffffffffffffffffffffffffffffffffffff1685876040518082805190602001908083835b6020831062000ae1578051825260208201915060208101905060208303925062000abc565b6001836020036101000a03801982511681845116808217855250505050505090500191505060006040518083038185875af1925050503d806000811462000b45576040519150601f19603f3d011682016040523d82523d6000602084013e62000b4a565b606091505b509150915062000b6282828662000b8160201b60201c565b92505050949350505050565b600080823b905060008111915050919050565b6060831562000b935782905062000c4c565b60008351111562000ba75782518084602001fd5b816040517f08c379a00000000000000000000000000000000000000000000000000000000081526004018080602001828103825283818151815260200191508051906020019080838360005b8381101562000c1057808201518184015260208101905062000bf3565b50505050905090810190601f16801562000c3e5780820380516001836020036101000a031916815260200191505b509250505060405180910390fd5b9392505050565b828054600181600116156101000203166002900490600052602060002090601f01602090048101928262000c8b576000855562000cd7565b82601f1062000ca657805160ff191683800117855562000cd7565b8280016001018555821562000cd7579182015b8281111562000cd657825182559160200191906001019062000cb9565b5b50905062000ce6919062000cea565b5090565b5b8082111562000d0557600081600090555060010162000ceb565b5090565b60805160601c60a05160c05160e05161010051610120516101405161016051615ce762000dab60003980611cd4528061281052508061210b5280612834525080611cb052806129eb52806132af52508061197c5280612371528061328252806132eb52806133205250806135af528061382e525080611b9c52806133a7525080612c385280613373525080611d1852806146d252806147965250615ce76000f3fe608060405234801561001057600080fd5b506004361061032b5760003560e01c80636c0360eb116101b25780639a7b5f11116100f9578063c87b56dd116100a2578063e1cf73b91161007c578063e1cf73b914611087578063e985e9c5146110a5578063eced55261461111f578063f2fde38b1461113d5761032b565b8063c87b56dd14610f1c578063cfc0be2a14610fc3578063d7af3c8c1461100f5761032b565b8063a7e59eed116100d3578063a7e59eed14610db5578063b6441ab214610dd3578063b88d4fde14610e175761032b565b80639a7b5f1114610cb4578063a154ce8214610d21578063a22cb46514610d655761032b565b80637b46c54f1161015b5780638da5cb5b116101355780638da5cb5b14610bbb57806395d89b4114610bef5780639878357214610c725761032b565b80637b46c54f14610b2b5780637d88209714610b6f57806383b24c5214610b8d5761032b565b806370a082311161018c57806370a0823114610aab578063715018a614610b0357806378e9792514610b0d5761032b565b80636c0360eb146109965780636ce0c4b514610a195780637091ce7214610a8d5761032b565b80632f745c591161027657806344288f811161021f5780636352211e116101f95780636352211e146108dc57806364df1900146109345780636770b773146109625761032b565b806344288f811461085c5780634f6ccce714610890578063630b5ba1146108d25761032b565b80633197cbb6116102505780633197cbb6146107b257806338a91d02146107d057806342842e0e146107ee5761032b565b80632f745c5914610698578063313cedf0146106fa578063317d7a2b1461071a5761032b565b806317caf6f1116102d85780631eaaa045116102b25780631eaaa045146105b257806323b872dd1461060c578063270a38561461067a5761032b565b806317caf6f11461053457806318160ddd146105525780631be2055e146105705761032b565b8063081e3eda11610309578063081e3eda1461046e578063095ea7b31461048c5780630b139194146104da5761032b565b806301ffc9a71461033057806306fdde0314610393578063081812fc14610416575b600080fd5b61037b6004803603602081101561034657600080fd5b8101908080357bffffffffffffffffffffffffffffffffffffffffffffffffffffffff19169060200190929190505050611181565b60405180821515815260200191505060405180910390f35b61039b6111e9565b6040518080602001828103825283818151815260200191508051906020019080838360005b838110156103db5780820151818401526020810190506103c0565b50505050905090810190601f1680156104085780820380516001836020036101000a031916815260200191505b509250505060405180910390f35b6104426004803603602081101561042c57600080fd5b810190808035906020019092919050505061128b565b604051808273ffffffffffffffffffffffffffffffffffffffff16815260200191505060405180910390f35b610476611326565b6040518082815260200191505060405180910390f35b6104d8600480360360408110156104a257600080fd5b81019080803573ffffffffffffffffffffffffffffffffffffffff16906020019092919080359060200190929190505050611337565b005b610532600480360360608110156104f057600080fd5b81019080803573ffffffffffffffffffffffffffffffffffffffff1690602001909291908035906020019092919080351515906020019092919050505061147b565b005b61053c6116c5565b6040518082815260200191505060405180910390f35b61055a6116cb565b6040518082815260200191505060405180910390f35b61059c6004803603602081101561058657600080fd5b81019080803590602001909291905050506116dc565b6040518082815260200191505060405180910390f35b61060a600480360360608110156105c857600080fd5b8101908080359060200190929190803573ffffffffffffffffffffffffffffffffffffffff16906020019092919080351515906020019092919050505061176e565b005b6106786004803603606081101561062257600080fd5b81019080803573ffffffffffffffffffffffffffffffffffffffff169060200190929190803573ffffffffffffffffffffffffffffffffffffffff16906020019092919080359060200190929190505050611b24565b005b610682611b9a565b6040518082815260200191505060405180910390f35b6106e4600480360360408110156106ae57600080fd5b81019080803573ffffffffffffffffffffffffffffffffffffffff16906020019092919080359060200190929190505050611bbe565b6040518082815260200191505060405180910390f35b610702611c19565b60405180821515815260200191505060405180910390f35b6107466004803603602081101561073057600080fd5b8101908080359060200190929190505050611c2c565b604051808881526020018781526020018681526020018581526020018481526020018373ffffffffffffffffffffffffffffffffffffffff1681526020018273ffffffffffffffffffffffffffffffffffffffff16815260200197505050505050505060405180910390f35b6107ba611cae565b6040518082815260200191505060405180910390f35b6107d8611cd2565b6040518082815260200191505060405180910390f35b61085a6004803603606081101561080457600080fd5b81019080803573ffffffffffffffffffffffffffffffffffffffff169060200190929190803573ffffffffffffffffffffffffffffffffffffffff16906020019092919080359060200190929190505050611cf6565b005b610864611d16565b604051808273ffffffffffffffffffffffffffffffffffffffff16815260200191505060405180910390f35b6108bc600480360360208110156108a657600080fd5b8101908080359060200190929190505050611d3a565b6040518082815260200191505060405180910390f35b6108da611d5d565b005b610908600480360360208110156108f257600080fd5b8101908080359060200190929190505050611da3565b604051808273ffffffffffffffffffffffffffffffffffffffff16815260200191505060405180910390f35b6109606004803603602081101561094a57600080fd5b8101908080359060200190929190505050611dda565b005b61096a611fba565b604051808273ffffffffffffffffffffffffffffffffffffffff16815260200191505060405180910390f35b61099e611fe0565b6040518080602001828103825283818151815260200191508051906020019080838360005b838110156109de5780820151818401526020810190506109c3565b50505050905090810190601f168015610a0b5780820380516001836020036101000a031916815260200191505b509250505060405180910390f35b610a4560048036036020811015610a2f57600080fd5b8101908080359060200190929190505050612082565b604051808673ffffffffffffffffffffffffffffffffffffffff1681526020018581526020018481526020018381526020018281526020019550505050505060405180910390f35b610a95612109565b6040518082815260200191505060405180910390f35b610aed60048036036020811015610ac157600080fd5b81019080803573ffffffffffffffffffffffffffffffffffffffff16906020019092919050505061212d565b6040518082815260200191505060405180910390f35b610b0b612202565b005b610b1561236f565b6040518082815260200191505060405180910390f35b610b6d60048036036020811015610b4157600080fd5b81019080803573ffffffffffffffffffffffffffffffffffffffff169060200190929190505050612393565b005b610b7761248c565b6040518082815260200191505060405180910390f35b610bb960048036036020811015610ba357600080fd5b8101908080359060200190929190505050612492565b005b610bc361270f565b604051808273ffffffffffffffffffffffffffffffffffffffff16815260200191505060405180910390f35b610bf7612738565b6040518080602001828103825283818151815260200191508051906020019080838360005b83811015610c37578082015181840152602081019050610c1c565b50505050905090810190601f168015610c645780820380516001836020036101000a031916815260200191505b509250505060405180910390f35b610c9e60048036036020811015610c8857600080fd5b81019080803590602001909291905050506127da565b6040518082815260200191505060405180910390f35b610cf660048036036020811015610cca57600080fd5b81019080803573ffffffffffffffffffffffffffffffffffffffff169060200190929190505050612879565b6040518085815260200184815260200183815260200182815260200194505050505060405180910390f35b610d6360048036036020811015610d3757600080fd5b81019080803573ffffffffffffffffffffffffffffffffffffffff1690602001909291905050506128a9565b005b610db360048036036040811015610d7b57600080fd5b81019080803573ffffffffffffffffffffffffffffffffffffffff169060200190929190803515159060200190929190505050612a80565b005b610dbd612c36565b6040518082815260200191505060405180910390f35b610e1560048036036020811015610de957600080fd5b81019080803573ffffffffffffffffffffffffffffffffffffffff169060200190929190505050612c5a565b005b610f1a60048036036080811015610e2d57600080fd5b81019080803573ffffffffffffffffffffffffffffffffffffffff169060200190929190803573ffffffffffffffffffffffffffffffffffffffff1690602001909291908035906020019092919080359060200190640100000000811115610e9457600080fd5b820183602082011115610ea657600080fd5b80359060200191846001830284011164010000000083111715610ec857600080fd5b91908080601f016020809104026020016040519081016040528093929190818152602001838380828437600081840152601f19601f820116905080830192505050505050509192919290505050612f32565b005b610f4860048036036020811015610f3257600080fd5b8101908080359060200190929190505050612faa565b6040518080602001828103825283818151815260200191508051906020019080838360005b83811015610f88578082015181840152602081019050610f6d565b50505050905090810190601f168015610fb55780820380516001836020036101000a031916815260200191505b509250505060405180910390f35b610ff960048036036040811015610fd957600080fd5b81019080803590602001909291908035906020019092919050505061327b565b6040518082815260200191505060405180910390f35b6110856004803603608081101561102557600080fd5b81019080803573ffffffffffffffffffffffffffffffffffffffff1690602001909291908035906020019092919080359060200190929190803573ffffffffffffffffffffffffffffffffffffffff16906020019092919050505061341a565b005b61108f61382c565b6040518082815260200191505060405180910390f35b611107600480360360408110156110bb57600080fd5b81019080803573ffffffffffffffffffffffffffffffffffffffff169060200190929190803573ffffffffffffffffffffffffffffffffffffffff169060200190929190505050613850565b60405180821515815260200191505060405180910390f35b6111276138e4565b6040518082815260200191505060405180910390f35b61117f6004803603602081101561115357600080fd5b81019080803573ffffffffffffffffffffffffffffffffffffffff1690602001909291905050506138f0565b005b600060016000837bffffffffffffffffffffffffffffffffffffffffffffffffffffffff19167bffffffffffffffffffffffffffffffffffffffffffffffffffffffff1916815260200190815260200160002060009054906101000a900460ff169050919050565b606060078054600181600116156101000203166002900480601f0160208091040260200160405190810160405280929190818152602001828054600181600116156101000203166002900480156112815780601f1061125657610100808354040283529160200191611281565b820191906000526020600020905b81548152906001019060200180831161126457829003601f168201915b5050505050905090565b600061129682613dd5565b6112eb576040517f08c379a000000000000000000000000000000000000000000000000000000000815260040180806020018281038252602c815260200180615bb2602c913960400191505060405180910390fd5b6005600083815260200190815260200160002060009054906101000a900473ffffffffffffffffffffffffffffffffffffffff169050919050565b6000611332600d613df2565b905090565b600061134282611da3565b90508073ffffffffffffffffffffffffffffffffffffffff168373ffffffffffffffffffffffffffffffffffffffff1614156113c9576040517f08c379a0000000000000000000000000000000000000000000000000000000008152600401808060200182810382526021815260200180615c366021913960400191505060405180910390fd5b8073ffffffffffffffffffffffffffffffffffffffff166113e8613e07565b73ffffffffffffffffffffffffffffffffffffffff161480611417575061141681611411613e07565b613850565b5b61146c576040517f08c379a0000000000000000000000000000000000000000000000000000000008152600401808060200182810382526038815260200180615ae46038913960400191505060405180910390fd5b6114768383613e0f565b505050565b611483613e07565b73ffffffffffffffffffffffffffffffffffffffff166114a161270f565b73ffffffffffffffffffffffffffffffffffffffff161461152a576040517f08c379a00000000000000000000000000000000000000000000000000000000081526004018080602001828103825260208152602001807f4f776e61626c653a2063616c6c6572206973206e6f7420746865206f776e657281525060200191505060405180910390fd5b601260009054906101000a900460ff16156115ad576040517f08c379a000000000000000000000000000000000000000000000000000000000815260040180806020018281038252601d8152602001807f48463a20436f6e747261637420616c72656164792064697361626c656400000081525060200191505060405180910390fd5b80156115bc576115bb611d5d565b5b61162582611617600c60008773ffffffffffffffffffffffffffffffffffffffff1673ffffffffffffffffffffffffffffffffffffffff16815260200190815260200160002060000154600f54613d3a90919063ffffffff16565b613ba390919063ffffffff16565b600f8190555081600c60008573ffffffffffffffffffffffffffffffffffffffff1673ffffffffffffffffffffffffffffffffffffffff168152602001908152602001600020600001819055508273ffffffffffffffffffffffffffffffffffffffff167f2f4ae87a584f00dc35b043dd1c5ac839c1f41cd3a66e834d4e13faa6251634e6836040518082815260200191505060405180910390a2505050565b600f5481565b60006116d76003613ec8565b905090565b6000806011600084815260200190815260200160002090506000600c60008360050160009054906101000a900473ffffffffffffffffffffffffffffffffffffffff1673ffffffffffffffffffffffffffffffffffffffff1673ffffffffffffffffffffffffffffffffffffffff16815260200190815260200160002090506117658282613edd565b92505050919050565b611776613e07565b73ffffffffffffffffffffffffffffffffffffffff1661179461270f565b73ffffffffffffffffffffffffffffffffffffffff161461181d576040517f08c379a00000000000000000000000000000000000000000000000000000000081526004018080602001828103825260208152602001807f4f776e61626c653a2063616c6c6572206973206e6f7420746865206f776e657281525060200191505060405180910390fd5b601260009054906101000a900460ff16156118a0576040517f08c379a000000000000000000000000000000000000000000000000000000000815260040180806020018281038252601d8152602001807f48463a20436f6e747261637420616c72656164792064697361626c656400000081525060200191505060405180910390fd5b600073ffffffffffffffffffffffffffffffffffffffff16600b60009054906101000a900473ffffffffffffffffffffffffffffffffffffffff1673ffffffffffffffffffffffffffffffffffffffff161415611965576040517f08c379a00000000000000000000000000000000000000000000000000000000081526004018080602001828103825260158152602001807f48463a20485250206e6f7420736574757020796574000000000000000000000081525060200191505060405180910390fd5b801561197457611973611d5d565b5b60006119a0427f0000000000000000000000000000000000000000000000000000000000000000613fdb565b90506119b784600f54613ba390919063ffffffff16565b600f819055506119d183600d613ff590919063ffffffff16565b611a43576040517f08c379a000000000000000000000000000000000000000000000000000000000815260040180806020018281038252601a8152602001807f48463a204c5020706f6f6c20616c72656164792065786973747300000000000081525060200191505060405180910390fd5b6040518060800160405280858152602001828152602001600081526020016000815250600c60008573ffffffffffffffffffffffffffffffffffffffff1673ffffffffffffffffffffffffffffffffffffffff168152602001908152602001600020600082015181600001556020820151816001015560408201518160020155606082015181600301559050508273ffffffffffffffffffffffffffffffffffffffff167f0c98febfffcec480c66a977e13f14bafdb5199ea9603591a0715b0cabe0c3ae2856040518082815260200191505060405180910390a250505050565b611b35611b2f613e07565b82614025565b611b8a576040517f08c379a0000000000000000000000000000000000000000000000000000000008152600401808060200182810382526031815260200180615c576031913960400191505060405180910390fd5b611b95838383614119565b505050565b7f000000000000000000000000000000000000000000000000000000000000000081565b6000611c1182600260008673ffffffffffffffffffffffffffffffffffffffff1673ffffffffffffffffffffffffffffffffffffffff16815260200190815260200160002061435c90919063ffffffff16565b905092915050565b601260009054906101000a900460ff1681565b60116020528060005260406000206000915090508060000154908060010154908060020154908060030154908060040154908060050160009054906101000a900473ffffffffffffffffffffffffffffffffffffffff16908060060160009054906101000a900473ffffffffffffffffffffffffffffffffffffffff16905087565b7f000000000000000000000000000000000000000000000000000000000000000081565b7f000000000000000000000000000000000000000000000000000000000000000081565b611d1183838360405180602001604052806000815250612f32565b505050565b7f000000000000000000000000000000000000000000000000000000000000000081565b600080611d5183600361437690919063ffffffff16565b50905080915050919050565b6000611d69600d613df2565b905060005b81811015611d9f57611d92611d8d82600d6143a290919063ffffffff16565b612393565b8080600101915050611d6e565b5050565b6000611dd382604051806060016040528060298152602001615b466029913960036143bc9092919063ffffffff16565b9050919050565b60006011600083815260200190815260200160002090506000816002015411611e6b576040517f08c379a00000000000000000000000000000000000000000000000000000000081526004018080602001828103825260158152602001807f48463a206e6f206c6f636b20746f20657870697265000000000000000000000081525060200191505060405180910390fd5b4281600201541115611ee5576040517f08c379a000000000000000000000000000000000000000000000000000000000815260040180806020018281038252601f8152602001807f48463a206465706f73697420686173206e6f742065787069726564207965740081525060200191505060405180910390fd5b60008160050160009054906101000a900473ffffffffffffffffffffffffffffffffffffffff1690506000600c60008373ffffffffffffffffffffffffffffffffffffffff1673ffffffffffffffffffffffffffffffffffffffff1681526020019081526020016000209050611f5a82612393565b611f648382613edd565b8360040181905550611f7d8382856000015460006143db565b7f41f79da50c9a628d0b3c4748afc703eeec971160b7b9f28a6d64dadf322a48df846040518082815260200191505060405180910390a150505050565b600b60009054906101000a900473ffffffffffffffffffffffffffffffffffffffff1681565b6060600a8054600181600116156101000203166002900480601f0160208091040260200160405190810160405280929190818152602001828054600181600116156101000203166002900480156120785780601f1061204d57610100808354040283529160200191612078565b820191906000526020600020905b81548152906001019060200180831161205b57829003601f168201915b5050505050905090565b600080600080600061209e86600d6143a290919063ffffffff16565b94506000600c60008773ffffffffffffffffffffffffffffffffffffffff1673ffffffffffffffffffffffffffffffffffffffff1681526020019081526020016000209050806000015494508060010154935080600201549250806003015491505091939590929450565b7f000000000000000000000000000000000000000000000000000000000000000081565b60008073ffffffffffffffffffffffffffffffffffffffff168273ffffffffffffffffffffffffffffffffffffffff1614156121b4576040517f08c379a000000000000000000000000000000000000000000000000000000000815260040180806020018281038252602a815260200180615b1c602a913960400191505060405180910390fd5b6121fb600260008473ffffffffffffffffffffffffffffffffffffffff1673ffffffffffffffffffffffffffffffffffffffff16815260200190815260200160002061449b565b9050919050565b61220a613e07565b73ffffffffffffffffffffffffffffffffffffffff1661222861270f565b73ffffffffffffffffffffffffffffffffffffffff16146122b1576040517f08c379a00000000000000000000000000000000000000000000000000000000081526004018080602001828103825260208152602001807f4f776e61626c653a2063616c6c6572206973206e6f7420746865206f776e657281525060200191505060405180910390fd5b600073ffffffffffffffffffffffffffffffffffffffff1660008054906101000a900473ffffffffffffffffffffffffffffffffffffffff1673ffffffffffffffffffffffffffffffffffffffff167f8be0079c531659141344cd1fd0a4f28419497f9722a3daafe3b4186f6b6457e060405160405180910390a360008060006101000a81548173ffffffffffffffffffffffffffffffffffffffff021916908373ffffffffffffffffffffffffffffffffffffffff160217905550565b7f000000000000000000000000000000000000000000000000000000000000000081565b6000600c60008373ffffffffffffffffffffffffffffffffffffffff1673ffffffffffffffffffffffffffffffffffffffff1681526020019081526020016000209050806001015442116123e75750612489565b6000816003015490506000811415612409574282600101819055505050612489565b600061241983600101544261327b565b90506000612448600f5461243a866000015485613c2b90919063ffffffff16565b613cb190919063ffffffff16565b90506124736124608483613cb190919063ffffffff16565b8560020154613ba390919063ffffffff16565b8460020181905550428460010181905550505050505b50565b60105481565b3373ffffffffffffffffffffffffffffffffffffffff166124b282611da3565b73ffffffffffffffffffffffffffffffffffffffff161461253b576040517f08c379a000000000000000000000000000000000000000000000000000000000815260040180806020018281038252601d8152602001807f48463a204d757374206265206f776e657220746f20776974686472617700000081525060200191505060405180910390fd5b6000601160008381526020019081526020016000209050600081600201541480612569575042816002015411155b806125805750601260009054906101000a900460ff165b6125f2576040517f08c379a00000000000000000000000000000000000000000000000000000000081526004018080602001828103825260188152602001807f48463a204465706f736974207374696c6c206c6f636b6564000000000000000081525060200191505060405180910390fd5b60008160050160009054906101000a900473ffffffffffffffffffffffffffffffffffffffff1690506000600c60008373ffffffffffffffffffffffffffffffffffffffff1673ffffffffffffffffffffffffffffffffffffffff168152602001908152602001600020905061266782612393565b60006126738483613edd565b905061269084600301548360030154613d3a90919063ffffffff16565b82600301819055506126a1856144b0565b6126cf8460060160009054906101000a900473ffffffffffffffffffffffffffffffffffffffff16826145ea565b6126d933826146ce565b6127083385600001548573ffffffffffffffffffffffffffffffffffffffff1661486f9092919063ffffffff16565b5050505050565b60008060009054906101000a900473ffffffffffffffffffffffffffffffffffffffff16905090565b606060088054600181600116156101000203166002900480601f0160208091040260200160405190810160405280929190818152602001828054600181600116156101000203166002900480156127d05780601f106127a5576101008083540402835291602001916127d0565b820191906000526020600020905b8154815290600101906020018083116127b357829003601f168201915b5050505050905090565b6000808214156127f457670de0b6b3a76400009050612874565b60006128094284613d3a90919063ffffffff16565b90506128707f00000000000000000000000000000000000000000000000000000000000000006128627f000000000000000000000000000000000000000000000000000000000000000084613c2b90919063ffffffff16565b613ba390919063ffffffff16565b9150505b919050565b600c6020528060005260406000206000915090508060000154908060010154908060020154908060030154905084565b6128b1613e07565b73ffffffffffffffffffffffffffffffffffffffff166128cf61270f565b73ffffffffffffffffffffffffffffffffffffffff1614612958576040517f08c379a00000000000000000000000000000000000000000000000000000000081526004018080602001828103825260208152602001807f4f776e61626c653a2063616c6c6572206973206e6f7420746865206f776e657281525060200191505060405180910390fd5b601260009054906101000a900460ff16156129db576040517f08c379a000000000000000000000000000000000000000000000000000000000815260040180806020018281038252601d8152602001807f48463a20436f6e747261637420616c72656164792064697361626c656400000081525060200191505060405180910390fd5b6129e3611d5d565b6000612a0f427f000000000000000000000000000000000000000000000000000000000000000061327b565b9050612a3582612a30670de0b6b3a764000084613cb190919063ffffffff16565b6146ce565b6001601260006101000a81548160ff0219169083151502179055507f75884cdadc4a89e8b545db800057f06ec7f5338a08183c7ba515f2bfdd9fe1e160405160405180910390a15050565b612a88613e07565b73ffffffffffffffffffffffffffffffffffffffff168273ffffffffffffffffffffffffffffffffffffffff161415612b29576040517f08c379a00000000000000000000000000000000000000000000000000000000081526004018080602001828103825260198152602001807f4552433732313a20617070726f766520746f2063616c6c65720000000000000081525060200191505060405180910390fd5b8060066000612b36613e07565b73ffffffffffffffffffffffffffffffffffffffff1673ffffffffffffffffffffffffffffffffffffffff16815260200190815260200160002060008473ffffffffffffffffffffffffffffffffffffffff1673ffffffffffffffffffffffffffffffffffffffff16815260200190815260200160002060006101000a81548160ff0219169083151502179055508173ffffffffffffffffffffffffffffffffffffffff16612be3613e07565b73ffffffffffffffffffffffffffffffffffffffff167f17307eab39ab6107e8899845ad3d59bd9653f200f220920489ca2b5937696c318360405180821515815260200191505060405180910390a35050565b7f000000000000000000000000000000000000000000000000000000000000000081565b612c62613e07565b73ffffffffffffffffffffffffffffffffffffffff16612c8061270f565b73ffffffffffffffffffffffffffffffffffffffff1614612d09576040517f08c379a00000000000000000000000000000000000000000000000000000000081526004018080602001828103825260208152602001807f4f776e61626c653a2063616c6c6572206973206e6f7420746865206f776e657281525060200191505060405180910390fd5b600073ffffffffffffffffffffffffffffffffffffffff16600b60009054906101000a900473ffffffffffffffffffffffffffffffffffffffff1673ffffffffffffffffffffffffffffffffffffffff1614612dcd576040517f08c379a00000000000000000000000000000000000000000000000000000000081526004018080602001828103825260138152602001807f48463a2048525020616c7265616479207365740000000000000000000000000081525060200191505060405180910390fd5b3073ffffffffffffffffffffffffffffffffffffffff168173ffffffffffffffffffffffffffffffffffffffff16638da5cb5b6040518163ffffffff1660e01b815260040160206040518083038186803b158015612e2a57600080fd5b505afa158015612e3e573d6000803e3d6000fd5b505050506040513d6020811015612e5457600080fd5b810190808051906020019092919050505073ffffffffffffffffffffffffffffffffffffffff1614612eee576040517f08c379a00000000000000000000000000000000000000000000000000000000081526004018080602001828103825260188152602001807f48463a204e6f7420796574206f776e6572206f6620485250000000000000000081525060200191505060405180910390fd5b80600b60006101000a81548173ffffffffffffffffffffffffffffffffffffffff021916908373ffffffffffffffffffffffffffffffffffffffff16021790555050565b612f43612f3d613e07565b83614025565b612f98576040517f08c379a0000000000000000000000000000000000000000000000000000000008152600401808060200182810382526031815260200180615c576031913960400191505060405180910390fd5b612fa484848484614911565b50505050565b6060612fb582613dd5565b61300a576040517f08c379a000000000000000000000000000000000000000000000000000000000815260040180806020018281038252602f815260200180615c07602f913960400191505060405180910390fd5b6000600960008481526020019081526020016000208054600181600116156101000203166002900480601f0160208091040260200160405190810160405280929190818152602001828054600181600116156101000203166002900480156130b35780601f10613088576101008083540402835291602001916130b3565b820191906000526020600020905b81548152906001019060200180831161309657829003601f168201915b5050505050905060006130c4611fe0565b90506000815114156130da578192505050613276565b6000825111156131ab5780826040516020018083805190602001908083835b6020831061311c57805182526020820191506020810190506020830392506130f9565b6001836020036101000a03801982511681845116808217855250505050505090500182805190602001908083835b6020831061316d578051825260208201915060208101905060208303925061314a565b6001836020036101000a0380198251168184511680821785525050505050509050019250505060405160208183030381529060405292505050613276565b806131b585614983565b6040516020018083805190602001908083835b602083106131eb57805182526020820191506020810190506020830392506131c8565b6001836020036101000a03801982511681845116808217855250505050505090500182805190602001908083835b6020831061323c5780518252602082019150602081019050602083039250613219565b6001836020036101000a03801982511681845116808217855250505050505090500192505050604051602081830303815290604052925050505b919050565b60006132a77f000000000000000000000000000000000000000000000000000000000000000084613fdb565b92506132d3827f0000000000000000000000000000000000000000000000000000000000000000614aca565b9150818311156132e65760009050613414565b6133197f000000000000000000000000000000000000000000000000000000000000000084613d3a90919063ffffffff16565b925061334e7f000000000000000000000000000000000000000000000000000000000000000083613d3a90919063ffffffff16565b915061341160026134036133e26133a06133718789613ba390919063ffffffff16565b7f0000000000000000000000000000000000000000000000000000000000000000613c2b90919063ffffffff16565b6133d460027f0000000000000000000000000000000000000000000000000000000000000000613c2b90919063ffffffff16565b613d3a90919063ffffffff16565b6133f58787613d3a90919063ffffffff16565b613c2b90919063ffffffff16565b613cb190919063ffffffff16565b90505b92915050565b601260009054906101000a900460ff161561349d576040517f08c379a000000000000000000000000000000000000000000000000000000000815260040180806020018281038252601d8152602001807f48463a20436f6e747261637420616c72656164792064697361626c656400000081525060200191505060405180910390fd5b60008214806134ab57504282115b61351d576040517f08c379a00000000000000000000000000000000000000000000000000000000081526004018080602001828103825260178152602001807f48463a20496e76616c696420756e6c6f636b2074696d6500000000000000000081525060200191505060405180910390fd5b61353184600d614ae390919063ffffffff16565b6135a3576040517f08c379a00000000000000000000000000000000000000000000000000000000081526004018080602001828103825260158152602001807f48463a204e6f6e2d6578697374616e7420706f6f6c000000000000000000000081525060200191505060405180910390fd5b60008214806135e457507f00000000000000000000000000000000000000000000000000000000000000006135e14284613d3a90919063ffffffff16565b11155b613656576040517f08c379a000000000000000000000000000000000000000000000000000000000815260040180806020018281038252601d8152602001807f48463a204c6f636b2074696d652065786365656473206d6178696d756d00000081525060200191505060405180910390fd5b6000600c60008673ffffffffffffffffffffffffffffffffffffffff1673ffffffffffffffffffffffffffffffffffffffff16815260200190815260200160002090506136a285612393565b6136cf3330868873ffffffffffffffffffffffffffffffffffffffff16613ae2909392919063ffffffff16565b6000601060008154809291906001019190505590506000601160008381526020019081526020016000209050858160000181905550868160050160006101000a81548173ffffffffffffffffffffffffffffffffffffffff021916908373ffffffffffffffffffffffffffffffffffffffff160217905550838160060160006101000a81548173ffffffffffffffffffffffffffffffffffffffff021916908373ffffffffffffffffffffffffffffffffffffffff160217905550613796818488886143db565b6137a03383614b13565b600073ffffffffffffffffffffffffffffffffffffffff168473ffffffffffffffffffffffffffffffffffffffff1614613823578373ffffffffffffffffffffffffffffffffffffffff167f18d55327aabc94c83b9efd0b736e4becf8fa6e0526ac58e30aa045389358248e836040518082815260200191505060405180910390a25b50505050505050565b7f000000000000000000000000000000000000000000000000000000000000000081565b6000600660008473ffffffffffffffffffffffffffffffffffffffff1673ffffffffffffffffffffffffffffffffffffffff16815260200190815260200160002060008373ffffffffffffffffffffffffffffffffffffffff1673ffffffffffffffffffffffffffffffffffffffff16815260200190815260200160002060009054906101000a900460ff16905092915050565b670de0b6b3a764000081565b6138f8613e07565b73ffffffffffffffffffffffffffffffffffffffff1661391661270f565b73ffffffffffffffffffffffffffffffffffffffff161461399f576040517f08c379a00000000000000000000000000000000000000000000000000000000081526004018080602001828103825260208152602001807f4f776e61626c653a2063616c6c6572206973206e6f7420746865206f776e657281525060200191505060405180910390fd5b600073ffffffffffffffffffffffffffffffffffffffff168173ffffffffffffffffffffffffffffffffffffffff161415613a25576040517f08c379a0000000000000000000000000000000000000000000000000000000008152600401808060200182810382526026815260200180615a486026913960400191505060405180910390fd5b8073ffffffffffffffffffffffffffffffffffffffff1660008054906101000a900473ffffffffffffffffffffffffffffffffffffffff1673ffffffffffffffffffffffffffffffffffffffff167f8be0079c531659141344cd1fd0a4f28419497f9722a3daafe3b4186f6b6457e060405160405180910390a3806000806101000a81548173ffffffffffffffffffffffffffffffffffffffff021916908373ffffffffffffffffffffffffffffffffffffffff16021790555050565b613b9d846323b872dd60e01b858585604051602401808473ffffffffffffffffffffffffffffffffffffffff1681526020018373ffffffffffffffffffffffffffffffffffffffff1681526020018281526020019350505050604051602081830303815290604052907bffffffffffffffffffffffffffffffffffffffffffffffffffffffff19166020820180517bffffffffffffffffffffffffffffffffffffffffffffffffffffffff8381831617835250505050614b31565b50505050565b600080828401905083811015613c21576040517f08c379a000000000000000000000000000000000000000000000000000000000815260040180806020018281038252601b8152602001807f536166654d6174683a206164646974696f6e206f766572666c6f77000000000081525060200191505060405180910390fd5b8091505092915050565b600080831415613c3e5760009050613cab565b6000828402905082848281613c4f57fe5b0414613ca6576040517f08c379a0000000000000000000000000000000000000000000000000000000008152600401808060200182810382526021815260200180615b916021913960400191505060405180910390fd5b809150505b92915050565b6000808211613d28576040517f08c379a000000000000000000000000000000000000000000000000000000000815260040180806020018281038252601a8152602001807f536166654d6174683a206469766973696f6e206279207a65726f00000000000081525060200191505060405180910390fd5b818381613d3157fe5b04905092915050565b600082821115613db2576040517f08c379a000000000000000000000000000000000000000000000000000000000815260040180806020018281038252601e8152602001807f536166654d6174683a207375627472616374696f6e206f766572666c6f77000081525060200191505060405180910390fd5b818303905092915050565b6060613dcc8484600085614c20565b90509392505050565b6000613deb826003614dc890919063ffffffff16565b9050919050565b6000613e0082600001614de2565b9050919050565b600033905090565b816005600083815260200190815260200160002060006101000a81548173ffffffffffffffffffffffffffffffffffffffff021916908373ffffffffffffffffffffffffffffffffffffffff160217905550808273ffffffffffffffffffffffffffffffffffffffff16613e8283611da3565b73ffffffffffffffffffffffffffffffffffffffff167f8c5be1e5ebec7d5bd14f71427d1e84f3dd0314c0f7b2291e5b200ac8c7c3b92560405160405180910390a45050565b6000613ed682600001614df3565b9050919050565b60008082600201549050600083600301549050836001015442118015613f04575060008114155b15613f74576000613f1985600101544261327b565b90506000613f48600f54613f3a886000015485613c2b90919063ffffffff16565b613cb190919063ffffffff16565b9050613f6f613f608483613cb190919063ffffffff16565b85613ba390919063ffffffff16565b935050505b613fd18560040154613fc38760010154613fb5670de0b6b3a7640000613fa7888c60030154613c2b90919063ffffffff16565b613cb190919063ffffffff16565b613d3a90919063ffffffff16565b613ba390919063ffffffff16565b9250505092915050565b600081831015613feb5781613fed565b825b905092915050565b600061401d836000018373ffffffffffffffffffffffffffffffffffffffff1660001b614e04565b905092915050565b600061403082613dd5565b614085576040517f08c379a000000000000000000000000000000000000000000000000000000000815260040180806020018281038252602c815260200180615ab8602c913960400191505060405180910390fd5b600061409083611da3565b90508073ffffffffffffffffffffffffffffffffffffffff168473ffffffffffffffffffffffffffffffffffffffff1614806140ff57508373ffffffffffffffffffffffffffffffffffffffff166140e78461128b565b73ffffffffffffffffffffffffffffffffffffffff16145b80614110575061410f8185613850565b5b91505092915050565b8273ffffffffffffffffffffffffffffffffffffffff1661413982611da3565b73ffffffffffffffffffffffffffffffffffffffff16146141a5576040517f08c379a0000000000000000000000000000000000000000000000000000000008152600401808060200182810382526029815260200180615bde6029913960400191505060405180910390fd5b600073ffffffffffffffffffffffffffffffffffffffff168273ffffffffffffffffffffffffffffffffffffffff16141561422b576040517f08c379a0000000000000000000000000000000000000000000000000000000008152600401808060200182810382526024815260200180615a6e6024913960400191505060405180910390fd5b614236838383614e74565b614241600082613e0f565b61429281600260008673ffffffffffffffffffffffffffffffffffffffff1673ffffffffffffffffffffffffffffffffffffffff168152602001908152602001600020614e7990919063ffffffff16565b506142e481600260008573ffffffffffffffffffffffffffffffffffffffff1673ffffffffffffffffffffffffffffffffffffffff168152602001908152602001600020614e9390919063ffffffff16565b506142fb81836003614ead9092919063ffffffff16565b50808273ffffffffffffffffffffffffffffffffffffffff168473ffffffffffffffffffffffffffffffffffffffff167fddf252ad1be2c89b69c2b068fc378daa952ba7f163c4a11628f55a4df523b3ef60405160405180910390a4505050565b600061436b8360000183614ee2565b60001c905092915050565b6000806000806143898660000186614f65565b915091508160001c8160001c9350935050509250929050565b60006143b18360000183614ee2565b60001c905092915050565b60006143cf846000018460001b84614ffe565b60001c90509392505050565b61440c670de0b6b3a76400006143fe856002015485613c2b90919063ffffffff16565b613cb190919063ffffffff16565b84600101819055508084600201819055506000614454670de0b6b3a7640000614446614437856127da565b86613c2b90919063ffffffff16565b613cb190919063ffffffff16565b90506144838161447587600301548760030154613d3a90919063ffffffff16565b613ba390919063ffffffff16565b84600301819055508085600301819055505050505050565b60006144a982600001614de2565b9050919050565b60006144bb82611da3565b90506144c981600084614e74565b6144d4600083613e0f565b6000600960008481526020019081526020016000208054600181600116156101000203166002900490501461452357600960008381526020019081526020016000206000614522919061598e565b5b61457482600260008473ffffffffffffffffffffffffffffffffffffffff1673ffffffffffffffffffffffffffffffffffffffff168152602001908152602001600020614e7990919063ffffffff16565b506145898260036150f490919063ffffffff16565b5081600073ffffffffffffffffffffffffffffffffffffffff168273ffffffffffffffffffffffffffffffffffffffff167fddf252ad1be2c89b69c2b068fc378daa952ba7f163c4a11628f55a4df523b3ef60405160405180910390a45050565b600073ffffffffffffffffffffffffffffffffffffffff168273ffffffffffffffffffffffffffffffffffffffff16146146ca57600b60009054906101000a900473ffffffffffffffffffffffffffffffffffffffff1673ffffffffffffffffffffffffffffffffffffffff166340c10f1983836040518363ffffffff1660e01b8152600401808373ffffffffffffffffffffffffffffffffffffffff16815260200182815260200192505050600060405180830381600087803b1580156146b157600080fd5b505af11580156146c5573d6000803e3d6000fd5b505050505b5050565b60007f000000000000000000000000000000000000000000000000000000000000000073ffffffffffffffffffffffffffffffffffffffff166370a08231306040518263ffffffff1660e01b8152600401808273ffffffffffffffffffffffffffffffffffffffff16815260200191505060206040518083038186803b15801561475757600080fd5b505afa15801561476b573d6000803e3d6000fd5b505050506040513d602081101561478157600080fd5b810190808051906020019092919050505090507f000000000000000000000000000000000000000000000000000000000000000073ffffffffffffffffffffffffffffffffffffffff1663a9059cbb846147db8585614aca565b6040518363ffffffff1660e01b8152600401808373ffffffffffffffffffffffffffffffffffffffff16815260200182815260200192505050602060405180830381600087803b15801561482e57600080fd5b505af1158015614842573d6000803e3d6000fd5b505050506040513d602081101561485857600080fd5b810190808051906020019092919050505050505050565b61490c8363a9059cbb60e01b8484604051602401808373ffffffffffffffffffffffffffffffffffffffff16815260200182815260200192505050604051602081830303815290604052907bffffffffffffffffffffffffffffffffffffffffffffffffffffffff19166020820180517bffffffffffffffffffffffffffffffffffffffffffffffffffffffff8381831617835250505050614b31565b505050565b61491c848484614119565b6149288484848461510e565b61497d576040517f08c379a0000000000000000000000000000000000000000000000000000000008152600401808060200182810382526032815260200180615a166032913960400191505060405180910390fd5b50505050565b606060008214156149cb576040518060400160405280600181526020017f30000000000000000000000000000000000000000000000000000000000000008152509050614ac5565b600082905060005b600082146149f5578080600101915050600a82816149ed57fe5b0491506149d3565b60008167ffffffffffffffff81118015614a0e57600080fd5b506040519080825280601f01601f191660200182016040528015614a415781602001600182028036833780820191505090505b50905060006001830390508593505b60008414614abd57600a8481614a6257fe5b0660300160f81b82828060019003935081518110614a7c57fe5b60200101907effffffffffffffffffffffffffffffffffffffffffffffffffffffffffffff1916908160001a905350600a8481614ab557fe5b049350614a50565b819450505050505b919050565b6000818310614ad95781614adb565b825b905092915050565b6000614b0b836000018373ffffffffffffffffffffffffffffffffffffffff1660001b615327565b905092915050565b614b2d82826040518060200160405280600081525061534a565b5050565b6000614b93826040518060400160405280602081526020017f5361666545524332303a206c6f772d6c6576656c2063616c6c206661696c65648152508573ffffffffffffffffffffffffffffffffffffffff16613dbd9092919063ffffffff16565b9050600081511115614c1b57808060200190516020811015614bb457600080fd5b8101908080519060200190929190505050614c1a576040517f08c379a000000000000000000000000000000000000000000000000000000000815260040180806020018281038252602a815260200180615c88602a913960400191505060405180910390fd5b5b505050565b606082471015614c7b576040517f08c379a0000000000000000000000000000000000000000000000000000000008152600401808060200182810382526026815260200180615a926026913960400191505060405180910390fd5b614c84856153bb565b614cf6576040517f08c379a000000000000000000000000000000000000000000000000000000000815260040180806020018281038252601d8152602001807f416464726573733a2063616c6c20746f206e6f6e2d636f6e747261637400000081525060200191505060405180910390fd5b6000808673ffffffffffffffffffffffffffffffffffffffff1685876040518082805190602001908083835b60208310614d455780518252602082019150602081019050602083039250614d22565b6001836020036101000a03801982511681845116808217855250505050505090500191505060006040518083038185875af1925050503d8060008114614da7576040519150601f19603f3d011682016040523d82523d6000602084013e614dac565b606091505b5091509150614dbc8282866153ce565b92505050949350505050565b6000614dda836000018360001b61549a565b905092915050565b600081600001805490509050919050565b600081600001805490509050919050565b6000614e108383615327565b614e69578260000182908060018154018082558091505060019003906000526020600020016000909190919091505582600001805490508360010160008481526020019081526020016000208190555060019050614e6e565b600090505b92915050565b505050565b6000614e8b836000018360001b6154bd565b905092915050565b6000614ea5836000018360001b614e04565b905092915050565b6000614ed9846000018460001b8473ffffffffffffffffffffffffffffffffffffffff1660001b6155a5565b90509392505050565b600081836000018054905011614f43576040517f08c379a00000000000000000000000000000000000000000000000000000000081526004018080602001828103825260228152602001806159f46022913960400191505060405180910390fd5b826000018281548110614f5257fe5b9060005260206000200154905092915050565b60008082846000018054905011614fc7576040517f08c379a0000000000000000000000000000000000000000000000000000000008152600401808060200182810382526022815260200180615b6f6022913960400191505060405180910390fd5b6000846000018481548110614fd857fe5b906000526020600020906002020190508060000154816001015492509250509250929050565b600080846001016000858152602001908152602001600020549050600081141583906150c5576040517f08c379a00000000000000000000000000000000000000000000000000000000081526004018080602001828103825283818151815260200191508051906020019080838360005b8381101561508a57808201518184015260208101905061506f565b50505050905090810190601f1680156150b75780820380516001836020036101000a031916815260200191505b509250505060405180910390fd5b508460000160018203815481106150d857fe5b9060005260206000209060020201600101549150509392505050565b6000615106836000018360001b615681565b905092915050565b600061512f8473ffffffffffffffffffffffffffffffffffffffff166153bb565b61513c576001905061531f565b60006152a663150b7a0260e01b615151613e07565b888787604051602401808573ffffffffffffffffffffffffffffffffffffffff1681526020018473ffffffffffffffffffffffffffffffffffffffff16815260200183815260200180602001828103825283818151815260200191508051906020019080838360005b838110156151d55780820151818401526020810190506151ba565b50505050905090810190601f1680156152025780820380516001836020036101000a031916815260200191505b5095505050505050604051602081830303815290604052907bffffffffffffffffffffffffffffffffffffffffffffffffffffffff19166020820180517bffffffffffffffffffffffffffffffffffffffffffffffffffffffff8381831617835250505050604051806060016040528060328152602001615a16603291398773ffffffffffffffffffffffffffffffffffffffff16613dbd9092919063ffffffff16565b905060008180602001905160208110156152bf57600080fd5b8101908080519060200190929190505050905063150b7a0260e01b7bffffffffffffffffffffffffffffffffffffffffffffffffffffffff1916817bffffffffffffffffffffffffffffffffffffffffffffffffffffffff191614925050505b949350505050565b600080836001016000848152602001908152602001600020541415905092915050565b615354838361579a565b615361600084848461510e565b6153b6576040517f08c379a0000000000000000000000000000000000000000000000000000000008152600401808060200182810382526032815260200180615a166032913960400191505060405180910390fd5b505050565b600080823b905060008111915050919050565b606083156153de57829050615493565b6000835111156153f15782518084602001fd5b816040517f08c379a00000000000000000000000000000000000000000000000000000000081526004018080602001828103825283818151815260200191508051906020019080838360005b8381101561545857808201518184015260208101905061543d565b50505050905090810190601f1680156154855780820380516001836020036101000a031916815260200191505b509250505060405180910390fd5b9392505050565b600080836001016000848152602001908152602001600020541415905092915050565b60008083600101600084815260200190815260200160002054905060008114615599576000600182039050600060018660000180549050039050600086600001828154811061550857fe5b906000526020600020015490508087600001848154811061552557fe5b906000526020600020018190555060018301876001016000838152602001908152602001600020819055508660000180548061555d57fe5b6001900381819060005260206000200160009055905586600101600087815260200190815260200160002060009055600194505050505061559f565b60009150505b92915050565b600080846001016000858152602001908152602001600020549050600081141561564c5784600001604051806040016040528086815260200185815250908060018154018082558091505060019003906000526020600020906002020160009091909190915060008201518160000155602082015181600101555050846000018054905085600101600086815260200190815260200160002081905550600191505061567a565b8285600001600183038154811061565f57fe5b90600052602060002090600202016001018190555060009150505b9392505050565b6000808360010160008481526020019081526020016000205490506000811461578e57600060018203905060006001866000018054905003905060008660000182815481106156cc57fe5b90600052602060002090600202019050808760000184815481106156ec57fe5b906000526020600020906002020160008201548160000155600182015481600101559050506001830187600101600083600001548152602001908152602001600020819055508660000180548061573f57fe5b6001900381819060005260206000209060020201600080820160009055600182016000905550509055866001016000878152602001908152602001600020600090556001945050505050615794565b60009150505b92915050565b600073ffffffffffffffffffffffffffffffffffffffff168273ffffffffffffffffffffffffffffffffffffffff16141561583d576040517f08c379a00000000000000000000000000000000000000000000000000000000081526004018080602001828103825260208152602001807f4552433732313a206d696e7420746f20746865207a65726f206164647265737381525060200191505060405180910390fd5b61584681613dd5565b156158b9576040517f08c379a000000000000000000000000000000000000000000000000000000000815260040180806020018281038252601c8152602001807f4552433732313a20746f6b656e20616c7265616479206d696e7465640000000081525060200191505060405180910390fd5b6158c560008383614e74565b61591681600260008573ffffffffffffffffffffffffffffffffffffffff1673ffffffffffffffffffffffffffffffffffffffff168152602001908152602001600020614e9390919063ffffffff16565b5061592d81836003614ead9092919063ffffffff16565b50808273ffffffffffffffffffffffffffffffffffffffff16600073ffffffffffffffffffffffffffffffffffffffff167fddf252ad1be2c89b69c2b068fc378daa952ba7f163c4a11628f55a4df523b3ef60405160405180910390a45050565b50805460018160011615610100020316600290046000825580601f106159b457506159d3565b601f0160209004906000526020600020908101906159d291906159d6565b5b50565b5b808211156159ef5760008160009055506001016159d7565b509056fe456e756d657261626c655365743a20696e646578206f7574206f6620626f756e64734552433732313a207472616e7366657220746f206e6f6e20455243373231526563656976657220696d706c656d656e7465724f776e61626c653a206e6577206f776e657220697320746865207a65726f20616464726573734552433732313a207472616e7366657220746f20746865207a65726f2061646472657373416464726573733a20696e73756666696369656e742062616c616e636520666f722063616c6c4552433732313a206f70657261746f7220717565727920666f72206e6f6e6578697374656e7420746f6b656e4552433732313a20617070726f76652063616c6c6572206973206e6f74206f776e6572206e6f7220617070726f76656420666f7220616c6c4552433732313a2062616c616e636520717565727920666f7220746865207a65726f20616464726573734552433732313a206f776e657220717565727920666f72206e6f6e6578697374656e7420746f6b656e456e756d657261626c654d61703a20696e646578206f7574206f6620626f756e6473536166654d6174683a206d756c7469706c69636174696f6e206f766572666c6f774552433732313a20617070726f76656420717565727920666f72206e6f6e6578697374656e7420746f6b656e4552433732313a207472616e73666572206f6620746f6b656e2074686174206973206e6f74206f776e4552433732314d657461646174613a2055524920717565727920666f72206e6f6e6578697374656e7420746f6b656e4552433732313a20617070726f76616c20746f2063757272656e74206f776e65724552433732313a207472616e736665722063616c6c6572206973206e6f74206f776e6572206e6f7220617070726f7665645361666545524332303a204552433230206f7065726174696f6e20646964206e6f742073756363656564a26469706673582212200eb693fd70e532422cfa03d692e4c52efcc1f86704a3addb74b4367886dd9ae264736f6c63430007060033416464726573733a20696e73756666696369656e742062616c616e636520666f722063616c6c536166654d6174683a206d756c7469706c69636174696f6e206f766572666c6f775361666545524332303a204552433230206f7065726174696f6e20646964206e6f742073756363656564",
  "immutableReferences": {
    "51": [
      {
        "length": 32,
        "start": 7448
      },
      {
        "length": 32,
        "start": 18130
      },
      {
        "length": 32,
        "start": 18326
      }
    ],
    "69": [
      {
        "length": 32,
        "start": 11320
      },
      {
        "length": 32,
        "start": 13171
      }
    ],
    "71": [
      {
        "length": 32,
        "start": 7068
      },
      {
        "length": 32,
        "start": 13223
      }
    ],
    "73": [
      {
        "length": 32,
        "start": 13743
      },
      {
        "length": 32,
        "start": 14382
      }
    ],
    "75": [
      {
        "length": 32,
        "start": 6524
      },
      {
        "length": 32,
        "start": 9073
      },
      {
        "length": 32,
        "start": 12930
      },
      {
        "length": 32,
        "start": 13035
      },
      {
        "length": 32,
        "start": 13088
      }
    ],
    "77": [
      {
        "length": 32,
        "start": 7344
      },
      {
        "length": 32,
        "start": 10731
      },
      {
        "length": 32,
        "start": 12975
      }
    ],
    "79": [
      {
        "length": 32,
        "start": 8459
      },
      {
        "length": 32,
        "start": 10292
      }
    ],
    "81": [
      {
        "length": 32,
        "start": 7380
      },
      {
        "length": 32,
        "start": 10256
      }
    ]
  },
  "source": "// SPDX-License-Identifier: GPL-3.0-only\n\npragma solidity 0.7.6;\n\nimport \"@openzeppelin/contracts/token/ERC721/ERC721.sol\";\nimport \"@openzeppelin/contracts/token/ERC20/IERC20.sol\";\nimport \"@openzeppelin/contracts/token/ERC20/SafeERC20.sol\";\nimport \"@openzeppelin/contracts/utils/EnumerableSet.sol\";\nimport \"@openzeppelin/contracts/math/SafeMath.sol\";\nimport \"@openzeppelin/contracts/math/Math.sol\";\nimport \"@openzeppelin/contracts/access/Ownable.sol\";\nimport \"./ReferralPoints.sol\";\n\n\n// Forked from sushiswap's MasterChef contract\ncontract HoneyFarm is Ownable, ERC721 {\n    using SafeMath for uint256;\n    using SafeERC20 for IERC20;\n    using EnumerableSet for EnumerableSet.AddressSet;\n\n    // Info of each deposit\n    struct DepositInfo {\n        uint256 amount; // How many LP tokens the user has provided.\n        uint256 rewardDebt; // Reward debt (value of accumulator)\n        uint256 unlockTime;\n        uint256 rewardShare;\n        uint256 setRewards;\n        IERC20 pool;\n        address referrer;\n    }\n\n    // Info of each pool.\n    struct PoolInfo {\n        uint256 allocPoint; // How many allocation points assigned to this pool.\n        uint256 lastRewardTimestamp; // Last block timestamp that HSFs distribution occured\n        uint256 accHsfPerShare; // Accumulated HSFs per share, times SCALE.\n        uint256 totalShares; // total shares stored in pool\n    }\n\n    // What fractional numbers are scaled by\n    uint256 public constant SCALE = 1 ether;\n    // The HoneySwap Farm token\n    IERC20 public immutable hsf;\n    // referral points token to keep track of referrals\n    ReferralPoints public referralPoints;\n    // Info of each pool.\n    mapping(IERC20 => PoolInfo) public poolInfo;\n    // set of running pools\n    EnumerableSet.AddressSet internal _pools;\n    // Total allocation poitns. Must be the sum of all allocation points in all pools.\n    uint256 public totalAllocPoint;\n    // total deposits\n    uint256 public totalDeposits;\n    // data about infdividual deposits\n    mapping(uint256 => DepositInfo) public depositInfo;\n    // the negative slope of the distribution line scaled by SCALE, how much\n    // less is being distributed per unit of time.\n    uint256 public immutable distSlope;\n    // starting distribution rate / unit time scaled by SCALE\n    uint256 public immutable startDist;\n    // maximum time someone can lock their liquidity for\n    uint256 public immutable maxTimeLock;\n    // time at which coins begin being distributed\n    uint256 public immutable startTime;\n    // time at which coins finish being distributed\n    uint256 public immutable endTime;\n    // multiplier for time locked deposits / second locked scaled by SCALE\n    uint256 public immutable timeLockMultiplier;\n    // constant added to the timeLockMultiplier scaled by SCALE\n    uint256 public immutable timeLockConstant;\n    // whether this contract has been disabled\n    bool public contractDisabled;\n\n    event PoolAdded(IERC20 indexed poolToken, uint256 allocPoint);\n    event PoolUpdated(IERC20 indexed poolToken, uint256 allocPoint);\n    event Disabled();\n    event DepositDowngraded(uint256 depositId);\n    event Referred(address indexed referrer, uint256 depositId);\n\n    constructor(\n        IERC20 hsf_,\n        uint256 totalHsfToDist,\n        uint256 startTime_,\n        uint256 endTime_,\n        /* End distribution fraction:\n           represents how much less tokens to distribute at the end vs the\n           beginning scaled by SCALE. If it's 0.2 * SCALE then 80% less tokens\n           will be distributed per unit of time at the end vs beginning */\n        uint256 endDistFrac,\n        uint256 maxTimeLock_,\n        uint256 timeLockMultiplier_,\n        uint256 timeLockConstant_\n    ) ERC721(\"HoneyFarm Deposits v1\", \"HFD\") {\n        require(endTime_ > startTime_, \"HF: endTime before startTime\");\n        hsf = hsf_;\n        startTime = startTime_;\n        endTime = endTime_;\n        maxTimeLock = maxTimeLock_;\n        timeLockMultiplier = timeLockMultiplier_;\n        timeLockConstant = timeLockConstant_;\n        hsf_.safeTransferFrom(msg.sender, address(this), totalHsfToDist);\n\n        /* check readme at github.com/1Hive/honeyswap-farm for a breakdown of\n           the maths */\n        // ds = (2 * s) / (te * (r + 1))\n        uint256 startDist_ = totalHsfToDist.mul(2).mul(SCALE).mul(SCALE).div(\n            (endTime_ - startTime_).mul(endDistFrac.add(SCALE))\n        );\n        // -m = ds * (1 - r) / te\n        distSlope = startDist_.mul(SCALE.sub(endDistFrac)).div(\n            (endTime_ - startTime_).mul(SCALE)\n        );\n        startDist = startDist_;\n    }\n\n    modifier notDisabled {\n        require(!contractDisabled, \"HF: Contract already disabled\");\n        _;\n    }\n\n    function poolLength() external view returns (uint256) {\n        return _pools.length();\n    }\n\n    function getPoolByIndex(uint256 index)\n        external\n        view\n        returns(\n            IERC20 poolToken,\n            uint256 allocPoint,\n            uint256 lastRewardTimestamp,\n            uint256 accHsfPerShare,\n            uint256 totalShares\n        )\n    {\n        poolToken = IERC20(_pools.at(index));\n        PoolInfo storage pool = poolInfo[poolToken];\n        allocPoint = pool.allocPoint;\n        lastRewardTimestamp = pool.lastRewardTimestamp;\n        accHsfPerShare = pool.accHsfPerShare;\n        totalShares = pool.totalShares;\n    }\n\n    function disableContract(address tokenRecipient)\n        external\n        onlyOwner\n        notDisabled\n    {\n        massUpdatePools();\n        uint256 remainingTokens = getDist(block.timestamp, endTime);\n        _safeHsfTransfer(tokenRecipient, remainingTokens.div(SCALE));\n        contractDisabled = true;\n        emit Disabled();\n    }\n\n    // Add a new lp to the pool. Can only be called by the owner.\n    function add(\n        uint256 allocPoint,\n        IERC20 lpToken,\n        bool withUpdate\n    ) public onlyOwner notDisabled {\n        require(address(referralPoints) != address(0), \"HF: HRP not setup yet\");\n        if (withUpdate) {\n            massUpdatePools();\n        }\n        uint256 lastRewardTimestamp = Math.max(block.timestamp, startTime);\n        totalAllocPoint = totalAllocPoint.add(allocPoint);\n        require(_pools.add(address(lpToken)), \"HF: LP pool already exists\");\n        poolInfo[lpToken] = PoolInfo({\n            allocPoint: allocPoint,\n            lastRewardTimestamp: lastRewardTimestamp,\n            accHsfPerShare: 0,\n            totalShares: 0\n        });\n        emit PoolAdded(lpToken, allocPoint);\n    }\n\n    // Update the given pool's SUSHI allocation point. Can only be called by the owner.\n    function set(\n        IERC20 poolToken,\n        uint256 allocPoint,\n        bool withUpdate\n    ) public onlyOwner notDisabled {\n        if (withUpdate) {\n            massUpdatePools();\n        }\n        totalAllocPoint = totalAllocPoint.sub(poolInfo[poolToken].allocPoint).add(\n            allocPoint\n        );\n        poolInfo[poolToken].allocPoint = allocPoint;\n        emit PoolUpdated(poolToken, allocPoint);\n    }\n\n    // get tokens to be distributed between two timestamps scaled by SCALE\n    function getDist(uint256 from, uint256 to)\n        public\n        view\n        returns (uint256)\n    {\n        from = Math.max(startTime, from);\n        to = Math.min(to, endTime);\n\n        if (from > to) return 0;\n\n        from = from.sub(startTime);\n        to = to.sub(startTime);\n\n        /* check readme at github.com/1Hive/honeyswap-farm for a breakdown of\n           the maths */\n        // d(t1, t2) = (t2 - t1) * (2 * ds - (-m) * (t2 + t1)) / 2\n        return to.sub(from).mul(\n            startDist.mul(2).sub(distSlope.mul(from.add(to)))\n        ).div(2);\n    }\n\n    function getTimeMultiple(uint256 unlockTime) public view returns(uint256) {\n        if (unlockTime == 0) return SCALE;\n        uint256 timeDelta = unlockTime.sub(block.timestamp);\n        return timeDelta.mul(timeLockMultiplier).add(timeLockConstant);\n    }\n\n    // View function to see pending HSFs on frontend.\n    function pendingHsf(uint256 depositId)\n        external\n        view\n        returns (uint256)\n    {\n        DepositInfo storage deposit = depositInfo[depositId];\n        PoolInfo storage pool = poolInfo[deposit.pool];\n        return _getPendingHsf(deposit, pool);\n    }\n\n    // Deposit LP tokens into the farm to earn HSF\n    function createDeposit(\n        IERC20 poolToken,\n        uint256 amount,\n        uint256 unlockTime,\n        address referrer\n    )\n        external notDisabled\n    {\n        require(\n            unlockTime == 0 || unlockTime > block.timestamp,\n            \"HF: Invalid unlock time\"\n        );\n        require(_pools.contains(address(poolToken)), \"HF: Non-existant pool\");\n        require(\n            unlockTime == 0 || unlockTime.sub(block.timestamp) <= maxTimeLock,\n            \"HF: Lock time exceeds maximum\"\n        );\n        PoolInfo storage pool = poolInfo[poolToken];\n        updatePool(poolToken);\n        poolToken.safeTransferFrom(\n            address(msg.sender),\n            address(this),\n            amount\n        );\n        uint256 newDepositId = totalDeposits++;\n        DepositInfo storage newDeposit = depositInfo[newDepositId];\n        newDeposit.amount = amount;\n        newDeposit.pool = poolToken;\n        newDeposit.referrer = referrer;\n        _resetRewardAccs(newDeposit, pool, amount, unlockTime);\n        _safeMint(msg.sender, newDepositId);\n\n        if (referrer != address(0)) {\n            emit Referred(referrer, newDepositId);\n        }\n    }\n\n    function downgradeExpired(uint256 depositId) external {\n        DepositInfo storage deposit = depositInfo[depositId];\n        require(deposit.unlockTime > 0, \"HF: no lock to expire\");\n        require(\n            deposit.unlockTime <= block.timestamp,\n            \"HF: deposit has not expired yet\"\n        );\n        IERC20 poolToken = deposit.pool;\n        PoolInfo storage pool = poolInfo[poolToken];\n        updatePool(poolToken);\n        deposit.setRewards = _getPendingHsf(deposit, pool);\n        _resetRewardAccs(deposit, pool, deposit.amount, 0);\n        emit DepositDowngraded(depositId);\n    }\n\n    // Withdraw LP tokens from HoneyFarm along with reward\n    function closeDeposit(uint256 depositId) external {\n        require(ownerOf(depositId) == msg.sender, \"HF: Must be owner to withdraw\");\n        DepositInfo storage deposit = depositInfo[depositId];\n        require(\n            deposit.unlockTime == 0 ||\n            deposit.unlockTime <= block.timestamp ||\n            contractDisabled,\n            \"HF: Deposit still locked\"\n        );\n        IERC20 poolToken = deposit.pool;\n        PoolInfo storage pool = poolInfo[poolToken];\n        updatePool(poolToken);\n\n        uint256 pending = _getPendingHsf(deposit, pool);\n        pool.totalShares = pool.totalShares.sub(deposit.rewardShare);\n        _burn(depositId);\n        _rewardReferrer(deposit.referrer, pending);\n        _safeHsfTransfer(msg.sender, pending);\n        poolToken.safeTransfer(msg.sender, deposit.amount);\n    }\n\n    function setReferralPoints(address referralPoints_) external onlyOwner {\n        require(address(referralPoints) == address(0), \"HF: HRP already set\");\n        require(\n            Ownable(referralPoints_).owner() == address(this),\n            \"HF: Not yet owner of HRP\"\n        );\n        referralPoints = ReferralPoints(referralPoints_);\n    }\n\n    // Update reward vairables for all pools. Be careful of gas spending!\n    function massUpdatePools() public {\n        uint256 length = _pools.length();\n        for (uint256 pid = 0; pid < length; pid++) {\n            updatePool(IERC20(_pools.at(pid)));\n        }\n    }\n\n    // Update reward variables of the given pool to be up-to-date.\n    function updatePool(IERC20 poolToken) public {\n        PoolInfo storage pool = poolInfo[poolToken];\n        if (block.timestamp <= pool.lastRewardTimestamp) {\n            return;\n        }\n        uint256 totalShares = pool.totalShares;\n        if (totalShares == 0) {\n            pool.lastRewardTimestamp = block.timestamp;\n            return;\n        }\n        uint256 dist = getDist(pool.lastRewardTimestamp, block.timestamp);\n        uint256 hsfReward = dist.mul(pool.allocPoint).div(totalAllocPoint);\n        pool.accHsfPerShare = pool.accHsfPerShare.add(hsfReward.div(totalShares));\n        pool.lastRewardTimestamp = block.timestamp;\n    }\n\n    function _rewardReferrer(address referrer, uint256 reward) internal {\n        if (referrer != address(0)) {\n            referralPoints.mint(referrer, reward);\n        }\n    }\n\n    function _getPendingHsf(\n        DepositInfo storage deposit,\n        PoolInfo storage pool\n    )\n        internal\n        view\n        returns(uint256)\n    {\n        uint256 accHsfPerShare = pool.accHsfPerShare;\n        uint256 totalShares = pool.totalShares;\n        if (block.timestamp > pool.lastRewardTimestamp && totalShares != 0) {\n            uint256 dist = getDist(pool.lastRewardTimestamp, block.timestamp);\n            uint256 hsfReward = dist.mul(pool.allocPoint).div(totalAllocPoint);\n            accHsfPerShare = accHsfPerShare.add(hsfReward.div(totalShares));\n        }\n        return deposit.rewardShare.mul(accHsfPerShare).div(SCALE).sub(\n            deposit.rewardDebt\n        ).add(deposit.setRewards);\n    }\n\n    function _resetRewardAccs(\n        DepositInfo storage deposit,\n        PoolInfo storage pool,\n        uint256 amount,\n        uint256 unlockTime\n    )\n        internal\n    {\n        deposit.rewardDebt = amount.mul(pool.accHsfPerShare).div(SCALE);\n        deposit.unlockTime = unlockTime;\n        uint256 newShares = amount.mul(getTimeMultiple(unlockTime)).div(SCALE);\n        pool.totalShares = pool.totalShares.sub(deposit.rewardShare).add(newShares);\n        deposit.rewardShare = newShares;\n    }\n\n    /* Safe hsf transfer function, just in case if rounding error causes pool\n       to not have enough HSFs. */\n    function _safeHsfTransfer(address to, uint256 amount) internal {\n        uint256 hsfBal = hsf.balanceOf(address(this));\n        hsf.transfer(to, Math.min(amount, hsfBal));\n    }\n}\n",
  "sourcePath": "/home/omnee/Work/1hive/honeycomb/honeyswap-farm/contracts/HoneyFarm.sol",
  "compiler": {
    "name": "solc",
    "version": "0.7.6+commit.7338295f.Emscripten.clang"
  },
  "schemaVersion": "3.3.4",
  "updatedAt": "2021-03-06T10:47:13.588Z",
  "networkType": "ethereum",
  "devdoc": {
    "kind": "dev",
    "methods": {
      "approve(address,uint256)": {
        "details": "See {IERC721-approve}."
      },
      "balanceOf(address)": {
        "details": "See {IERC721-balanceOf}."
      },
      "baseURI()": {
        "details": "Returns the base URI set via {_setBaseURI}. This will be automatically added as a prefix in {tokenURI} to each token's URI, or to the token ID if no specific URI is set for that token ID."
      },
      "getApproved(uint256)": {
        "details": "See {IERC721-getApproved}."
      },
      "isApprovedForAll(address,address)": {
        "details": "See {IERC721-isApprovedForAll}."
      },
      "name()": {
        "details": "See {IERC721Metadata-name}."
      },
      "owner()": {
        "details": "Returns the address of the current owner."
      },
      "ownerOf(uint256)": {
        "details": "See {IERC721-ownerOf}."
      },
      "renounceOwnership()": {
        "details": "Leaves the contract without owner. It will not be possible to call `onlyOwner` functions anymore. Can only be called by the current owner. NOTE: Renouncing ownership will leave the contract without an owner, thereby removing any functionality that is only available to the owner."
      },
      "safeTransferFrom(address,address,uint256)": {
        "details": "See {IERC721-safeTransferFrom}."
      },
      "safeTransferFrom(address,address,uint256,bytes)": {
        "details": "See {IERC721-safeTransferFrom}."
      },
      "setApprovalForAll(address,bool)": {
        "details": "See {IERC721-setApprovalForAll}."
      },
      "supportsInterface(bytes4)": {
        "details": "See {IERC165-supportsInterface}. Time complexity O(1), guaranteed to always use less than 30 000 gas."
      },
      "symbol()": {
        "details": "See {IERC721Metadata-symbol}."
      },
      "tokenByIndex(uint256)": {
        "details": "See {IERC721Enumerable-tokenByIndex}."
      },
      "tokenOfOwnerByIndex(address,uint256)": {
        "details": "See {IERC721Enumerable-tokenOfOwnerByIndex}."
      },
      "tokenURI(uint256)": {
        "details": "See {IERC721Metadata-tokenURI}."
      },
      "totalSupply()": {
        "details": "See {IERC721Enumerable-totalSupply}."
      },
      "transferFrom(address,address,uint256)": {
        "details": "See {IERC721-transferFrom}."
      },
      "transferOwnership(address)": {
        "details": "Transfers ownership of the contract to a new account (`newOwner`). Can only be called by the current owner."
      }
    },
    "version": 1
  },
  "userdoc": {
    "kind": "user",
    "methods": {},
    "version": 1
  }
}